:060000000C942F010C948A
:1000060000000C9400000C9400000C9400000C946A
:1000160000000C9400000C9400000C9400000C945A
:1000260000000C9400000C9400000C9400000C944A
:1000360000000C9400000C94150F0C9400000C9416
:1000460000000C9400000C9400000C9400000C942A
:1000560000000C9400000C9400000C9400000C941A
:1000660000000C9400000C9400000C9400000C940A
:1000760000000C9400000C9400000C9400000C94FA
:1000860000000C9400000C9400000C9400000C94EA
:1000960000000C9400000C9400000C9400000C94DA
:1000A60000000C9400000C9400000C9400000C94CA
:1000B60000000C9400000C9400000C9400000C94BA
:1000C600D70E0C94010F0C94080F0C940F0F0C9480
:1000D60000000C9400000C9400000C9400000C949A
:1000E60000000C9400000C9400000C9400000C948A
:1000F60000000C9400000C9400000C9400000C947A
:1001060000000C9400000C9400000C9400000C9469
:1001160000000C9400000C9400000C9400000C9459
:1001260000000C9400000C9400000C9400000C9449
:100136001F020C9400000C9400000C9400000C9418
:1001460000000C9400000C9400000C9400000C9429
:1001560000000C9400000C9400000C9400000C9419
:1001660000000C9400000C9400000C9400000C9409
:1001760000000C9400000C9400000C9400000C94F9
:1001860000000C9400000C9400000C94930A0C944C
:1001960000000C9400000C9400000C9400000C94D9
:1001A60000000C9400000C9400000C9400000C94C9
:1001B60000000C9400000C9400000C9400000C94B9
:1001C60000000C9400000C9400000C9400000C94A9
:1001D60000000C9400000C9400000C9400000C9499
:1001E60000000C9400000C9400000C9400000AD748
:1001F600233C0000803F6F12833A0000803F6F125D
:10020600833A0000803EDB0FC93F01002D4E414E70
:1002160000494E46000000000000000000000000FB
:100226002D4E414E000004002024F4010400C82491
:10023600F8010400CC24FC010400D02400020400D0
:10024600D42404020400E02408020400E4240C027E
:100256000100102510020000F894EE27E8BFE9BF60
:10026600EABFF091CC01F860F093CC01F8EDF4BF51
:10027600E093A200E0934004A0918000AD7FA160CE
:10028600F4BFA093800080E090E2A0E0B0E2ED939E
:100296000197E9F7ECE2F2E085919591009761F01C
:1002A600A591B59105901590BF01F00105900D92AD
:1002B6000197E1F7FB01F0CF8BBFEDE7E0B9E1E095
:1002C600E1B9E0E0E2B9E3B9E4B9E5B9E6B9E7B91D
:1002D600E8B9E9B9EAB9EBB9ECB9EDB9EEB9EFB9F4
:1002E600E1E06E2EE0E0AE2EBE2EDE2EEFEFEDBF8D
:1002F600EFE3EEBFC0E0D4E20C94AD0B1A930A9381
:100306000FB7F894E0915000E460E0935000E0915C
:100316005100E470E1F3E0915000E260E093500098
:10032600E0914100E0781E2FE8EDE4BF1093410014
:10033600E0915600EC7FE0935600E0916000E160AA
:10034600E0936000E0915100E270E1F3E09140003B
:10035600E87FE1601E2FE8EDE4BF10934000E091D6
:100366005000E67EE0935000E091B400EC7FE0930D
:10037600B4000FBF099119910895A881B981EC9134
:10038600E07FEC931996ECE0EC9322960895E8E072
:10039600E093A506E3E0E093A50BE091A30BE07CD8
:1003A600E093A30BEEE2E093A60BE8E9E093A70B3C
:1003B600E091A40BE07EE860E093A40B0895E09141
:1003C600A10BE072E1F3E881E093A00B219608957A
:1003D6001A931FB7F894E0E0F9E0FA93EA93CDDFB9
:1003E600E0910009E07FE560E0930009E0910609ED
:1003F600E07FE160E0930609E0910109E870E0938F
:100406000109E0910C09E0930C090E94350FE0E028
:10041600F0E0E0932809F0932909E0932A09F09384
:100426002B09E0932C09F0932D09E0932E09F09304
:100436002F091FBF199108950E94420F0E94520F63
:10044600EF5FFF4F6F4F7F4FE0930425F093052535
:1004560060930625709307250E945B0FE0E0EA9300
:100466000E941C0EE0931824F093192460931A241A
:1004760070931B24E0930824F093092460930A24C4
:1004860070930B240E945B0FE1E0EA930E941C0E1E
:10049600E0931C24F0931D2460931E2470931F2464
:1004A600E0930C24F0930D2460930E2470930F2494
:1004B6000E94640FE0E0EA930E941C0EE093102471
:1004C600F09311246093122470931324E093002474
:1004D600F093012460930224709303240E94640F16
:1004E600E1E0EA930E941C0EE0931424F093152495
:1004F6006093162470931724E0930424F093052444
:100506006093062470930724E0910824F09109244F
:1005160060910A2470910B240E946D0FA9E5BAE43C
:100526008BE19DE30E94DE140E947C0F0E94850FE2
:10053600E0910C24F0910D2460910E2470910F240B
:100546000E946D0FDF01CB01E0E0F0E06AE775E4A1
:100556000E942C150E948E0FE0910024F091012438
:1005660060910224709103240E946D0F0E947C0FFB
:100576000E94970FE0910424F091052460910624CF
:10058600709107240E946D0F0E947C0F0E94A00F9D
:100596000E94A90F0E94B20FEAE9F9E969E17FE337
:1005A6000E94711509F010F40C94DD020E94B90F37
:1005B6000E94850F0E94C20F0E94B20F0E94CB0FAD
:1005C60009F010F40C94EB020E94D20F0E94970FD0
:1005D6000E94DB0F0E94B20FE9EFFFE069EC70E4C6
:1005E6000E94711509F010F40C940303E0917C2429
:1005F600F0917D2460917E2470917F240E948E0F5D
:100606000E94E40F0E94B20F0E94CB0F09F010F473
:100616000C9411030E94ED0F0E94A00F0E94B90FC7
:10062600A5E6B9E182E69CE30E94DE14A0916C2463
:10063600B0916D2480916E2490916F240E94F60FE4
:100646000E94FD0FE0939424F093952460939624E2
:10065600709397240E940610A2E0BBEA86E292E419
:100666000E94F60F0E940F10A0917024B091712481
:1006760080917224909173240E94DE147F936F936D
:10068600FF93EF930E94D20FACEABDEA88E59FEB99
:100696000E94DE147F936F93FF93EF930E941410D2
:1006A600A3E8BFE28CEB90E40E94DE14AF91BF9109
:1006B6008F919F910E941D10AF91BF918F919F9135
:1006C6000E948E14E0934824F093492460934A24B0
:1006D60070934B24E0917024F09171246091722400
:1006E60070917324A7EDB3EE8AE892EC0E94DE14B3
:1006F6007F936F93FF93EF930E94D20FAAEEB5E11B
:100706008EE891E40E94DE14AF91BF918F919F9184
:100716000E940F107F936F93FF93EF930E94141024
:10072600A0E2B2ED8CE191E40E94DE14AF91BF919C
:100736008F919F910E941D10A0917824B0917924E9
:1007460080917A2490917B240E948E14E093502409
:10075600F093512460935224709353240E94061000
:10076600A2E1B3E08BE891E40E94DE140E942A1015
:100776000E94F60F0E940F10A0918024B091812450
:1007860080918224909183240E94DE147F936F933C
:10079600FF93EF93E0919424F09195246091962431
:1007A600709197240E9433107F936F93FF93EF937A
:1007B6000E94B90FAFEFB1E28DE79DE30E943E10B4
:1007C6007F936F93FF93EF930E944B10ADE8B7E9C9
:1007D6008EE391E40E94DE14AF91BF918F919F91B9
:1007E6000E948E14AF91BF918F919F910E94DE144B
:1007F600AF91BF918F919F910E948E14E0935C24DC
:10080600F0935D2460935E2470935F240E94ED0F45
:10081600ADECBCEC82E891EC0E94DE147F936F9302
:10082600FF93EF930E94B90F0E942A100E94DE14D4
:100836007F936F93FF93EF93E0918024F09181244F
:100846006091822470918324A8EBBFEA87EE91EC35
:100856000E94DE147F936F93FF93EF930E94B90F6C
:10086600AAEAB1EF82ED9DE30E943E10AF91BF91DF
:100876008F919F910E948E147F936F93FF93EF93B6
:100886000E944B10AFE8B3ED8EE991E40E94DE14AE
:10089600AF91BF918F919F910E948E14AF91BF919E
:1008A6008F919F910E94DE14AF91BF918F919F917E
:1008B6000E940F100E943310A0918824B0918924C1
:1008C60080918A2490918B240E948E14E093642454
:1008D600F093652460936624709367240E945410F5
:1008E600EAE9F9E969E17EE30E94711509F010F47D
:1008F6000C947E0409C00E945410EAE9F9E969E102
:100906007EEB0E94711540F4E0934824F09349244D
:1009160060934A2470934B240E945D10EDECFCEC2E
:100926006CE47FE30E94711509F010F40C949C04AA
:1009360009C00E945410EDECFCEC6CE47FEB0E94C5
:10094600711540F4E0935C24F0935D2460935E247B
:1009560070935F240E94C20F0E94EF150E94AD0D96
:1009660077233AF40E9466100E946B100E9466106C
:1009760008C00E9466100E946B10EFE6F2E163E881
:100986007AE3E093CC24F093CD246093CE24709345
:10099600CF240E94E40F0E94741077232AF40E9449
:1009A60078100E94661006C00E947810EFE6F2E109
:1009B60063E87AE3E093D424F093D5246093D624B5
:1009C6007093D724E0910C25F0910D2560910E25AA
:1009D60070910F25EF5FFF4F6F4F7F4FE0930C2510
:1009E600F0930D2560930E2570930F250E94061037
:1009F600A0E0B0E080EA91E40E94821061F4EDECA0
:100A0600FCEC6CEC7EE30E949110EBEFFBEC66E1F4
:100A160070E40E949A100E940610A0E0B0E08CE0FC
:100A260092E40E94821041F4EAE9F9E969E97EE379
:100A36000E94A4100E949A10A0E00799A1E0A0309D
:100A460011F4019901C054C3A091D824B091D924BE
:100A56008091DA249091DB240E94AE107F936F93ED
:100A6600FF93EF930E94B6100E9454100E94DE146A
:100A7600AF91BF918F919F910E948E147F936F9338
:100A8600FF93EF930E94C20FA091C824B091C9248E
:100A96008091CA249091CB240E94DE14A0914C240C
:100AA600B0914D2480914E2490914F240E94DE14E3
:100AB600AF91BF918F919F910E948E147F936F93F8
:100AC600FF93EF930E94BF10A091CC24B091CD2448
:100AD6008091CE249091CF240E94DE14A0915024C0
:100AE600B091512480915224909153240E94DE1497
:100AF600AF91BF918F919F910E948E147F936F93B8
:100B0600FF93EF930E94C8107F936F93FF93EF9329
:100B16000E94C810AF91BF918F919F910E94DE14E1
:100B2600AF91BF918F919F910E948E147F936F9387
:100B3600FF93EF930E94E1107F936F93FF93EF93E0
:100B46000E94E110AF91BF918F919F910E94DE1498
:100B5600AF91BF918F919F910E948E147F936F9357
:100B6600FF93EF930E94ED100E945D100E94DE1429
:100B7600AF91BF918F919F910E948E147F936F9337
:100B8600FF93EF930E94E40FA091D024B091D1245B
:100B96008091D2249091D3240E94DE14A0916024E7
:100BA600B091612480916224909163240E94DE14A6
:100BB600AF91BF918F919F910E948E147F936F93F7
:100BC600FF93EF930E94F610A091D424B091D52400
:100BD6008091D6249091D7240E94DE14A09164249B
:100BE600B091652480916624909167240E94DE145A
:100BF600AF91BF918F919F910E948E147F936F93B7
:100C0600FF93EF930E94FF107F936F93FF93EF93F1
:100C16000E94FF10AF91BF918F919F910E94DE14A9
:100C2600AF91BF918F919F910E941811E093C424B8
:100C3600F093C5246093C6247093C724A09198248A
:100C4600B091992480919A2490919B240E94AE1091
:100C56007F936F93FF93EF930E941E117F936F9381
:100C6600FF93EF930E941E11AF91BF918F919F91B9
:100C76000E94DE14AF91BF918F919F910E948E14B6
:100C86007F936F93FF93EF930E942A117F936F9345
:100C9600FF93EF930E942A11AF91BF918F919F917D
:100CA6000E94DE14AF91BF918F919F910E948E1486
:100CB6007F936F93FF93EF930E9436117F936F9309
:100CC600FF93EF930E943611AF91BF918F919F9141
:100CD6000E94DE14AF91BF918F919F910E948E1456
:100CE6007F936F93FF93EF930E9442117F936F93CD
:100CF600FF93EF930E944211AF91BF918F919F9105
:100D06000E94DE14AF91BF918F919F910E948E1425
:100D16007F936F93FF93EF930E9455117F936F9389
:100D2600FF93EF930E945511AF91BF918F919F91C1
:100D36000E94DE14AF91BF918F919F910E948E14F5
:100D46007F936F93FF93EF930E9461117F936F934D
:100D5600FF93EF930E946111AF91BF918F919F9185
:100D66000E94DE14AF91BF918F919F910E948E14C5
:100D76007F936F93FF93EF930E946D117F936F9311
:100D8600FF93EF930E946D11AF91BF918F919F9149
:100D96000E94DE14AF91BF918F919F910E948E1495
:100DA6007F936F93FF93EF930E9479117F936F93D5
:100DB600FF93EF930E947911AF91BF918F919F910D
:100DC6000E94DE14AF91BF918F919F910E948E1465
:100DD6007F936F93FF93EF930E9485117F936F9399
:100DE600FF93EF930E948511AF91BF918F919F91D1
:100DF6000E94DE14AF91BF918F919F910E941811AE
:100E0600E093C024F093C1246093C2247093C3245A
:100E1600E091C424F091C5246091C6247091C72442
:100E2600AFE6B2E183E09CE30E94DE14ADECBCECDD
:100E36008CE49DE30E948E14A091C024B091C1243D
:100E46008091C2249091C3240E94711510F00199DB
:100E560001C04DC10E9498117F936F93FF93EF934A
:100E66000E94A011AF91BF918F919F910E948E1405
:100E76007F936F93FF93EF930E94A811AF91BF9159
:100E86008F919F910E948E147F936F93FF93EF93A0
:100E96000E94B011AF91BF918F919F910E94B8119E
:100EA6000E94CD117F936F93FF93EF930E94D5110C
:100EB600AF91BF918F919F910E948E147F936F93F4
:100EC600FF93EF930E94DD11AF91BF918F919F9198
:100ED6000E948E147F936F93FF93EF930E94E51108
:100EE600AF91BF918F919F910E94ED1109F010F47F
:100EF6000C9480070E94661008C00E940D1218F418
:100F06000E941C1202C00E942112E093E824F09372
:100F1600E9246093EA247093EB240E942A120E942B
:100F260066100E94711509F010F40C949D070E943A
:100F3600661008C00E94331218F40E941C1202C0E8
:100F46000E943812E093EC24F093ED246093EE2493
:100F56007093EF24A0910825B091092580910A2568
:100F660090910B250E94520F0E94C715E330A0E016
:100F7600FA07A0E06A07A0E07A0710F4089BB7C05A
:100F860008EE14E230E0343020F40E9441123F5F54
:100F9600FACF0CEE14E230E0343020F40E94411215
:100FA6003F5FFACF08ED14E230E0343020F40E94BF
:100FB60041123F5FFACF0CED14E230E0343020F4FA
:100FC6000E9441123F5FFACF04E414E230E034306D
:100FD60020F40E9441123F5FFACF08E414E230E0A9
:100FE600343020F40E9441123F5FFACF08E514E244
:100FF60030E0343020F40E9441123F5FFACF0CE516
:1010060014E230E0343020F40E9441123F5FFACF00
:101016000E94520FE0930825F093092560930A2554
:1010260070930B2508980E94A90FE0939824F093DB
:10103600992460939A2470939B240E94B610E0939F
:101046009C24F0939D2460939E2470939F240E9479
:10105600C20FE093A024F093A1246093A22470937E
:10106600A3240E94BF10E093A424F093A5246093C8
:10107600A6247093A7240E944812E093A824F09314
:10108600A9246093AA247093AB240E94DB0FE093FB
:10109600AC24F093AD246093AE247093AF240E94E9
:1010A600ED10E093B024F093B1246093B2247093D2
:1010B600B3240E94E40FE093B424F093B524609324
:1010C600B6247093B7240E94F610E093B824F093E8
:1010D600B9246093BA247093BB240E945112E09302
:1010E600BC24F093BD246093BE247093BF24FEC03D
:1010F600079B02C0019901C0F9C00E9498117F9315
:101106006F93FF93EF930E94A011AF91BF918F91C0
:101116009F910E948E147F936F93FF93EF930E948B
:10112600A811AF91BF918F919F910E948E147F93CA
:101136006F93FF93EF930E94B011AF91BF918F9180
:101146009F910E94B8110E9498117F936F93FF930D
:10115600EF930E94A011AF91BF918F919F910E9432
:101166008E147F936F93FF93EF930E94A811AF9114
:10117600BF918F919F910E948E147F936F93FF93DF
:10118600EF930E94B011AF91BF918F919F910E94F2
:101196008E14E093F824F093F9246093FA24709364
:1011A600FB240E94CD117F936F93FF93EF930E94D0
:1011B600D511AF91BF918F919F910E948E147F930D
:1011C6006F93FF93EF930E94DD11AF91BF918F91C3
:1011D6009F910E948E147F936F93FF93EF930E94CB
:1011E600E511AF91BF918F919F910E94ED1109F08A
:1011F60010F40C9401090E94661008C00E940D129A
:1012060018F40E941C1202C00E942112E093E824E6
:10121600F093E9246093EA247093EB240E942A1247
:101226000E9466100E94711509F010F40C941E09B4
:101236000E94661008C00E94331218F40E941C1205
:1012460002C00E943812E093EC24F093ED246093E0
:10125600EE247093EF24E0E4E093A70608EE14E290
:1012660030E0343020F40E9441123F5FFACF0CEE9A
:1012760014E230E0343020F40E9441123F5FFACF8E
:1012860008ED14E230E0343020F40E9441123F5F52
:10129600FACF0CED14E230E0343020F40E94411213
:1012A6003F5FFACF04E414E230E0343020F40E94C9
:1012B60041123F5FFACF08E414E230E0343020F404
:1012C6000E9441123F5FFACF08E514E230E0343065
:1012D60020F40E9441123F5FFACF0CE514E230E0A1
:1012E600343020F40E9441123F5FFACF019B9EC02A
:1012F6000E945A120E9474107F936F93FF93EF938C
:10130600E091D824F091D9246091DA247091DB24FD
:101316000E946D12AF91BF918F919F910E9471159E
:1013260019F010F00C949909099B34C00E945A12C6
:10133600A0913424B091352480913624909137249D
:101346000E94DE14A0918C24B0918D2480918E246D
:1013560090918F240E948E147F936F93FF93EF9347
:10136600A091FC24B091FD248091FE249091FF244D
:101376000E9474120E947D12AF91BF918F919F912E
:101386000E948E14E0935424F093552460935624BF
:10139600709357240E9486120E9474107F936F9355
:1013A600FF93EF93E091DC24F091DD246091DE243D
:1013B6007091DF240E946D12AF91BF918F919F9122
:1013C6000E94711519F010F00C94EB09099B2EC0C0
:1013D6000E948612A0913824B091392480913A2433
:1013E60090913B240E94DE14A0919024B091912408
:1013F60080919224909193240E948E147F936F93F0
:10140600FF93EF930E942A120E9499120E947D1266
:10141600AF91BF918F919F910E948E14E0936824A3
:10142600F093692460936A2470936B240E94A90F39
:10143600E0936C24F0936D2460936E2470936F2474
:101446000E94B610E0937024F09371246093722486
:10145600709373240E94C20FE0937424F093752452
:1014660060937624709377240E94BF10E0937824CB
:10147600F093792460937A2470937B240E94DB0F87
:10148600E0937C24F0937D2460937E2470937F24E4
:101496000E94ED10E0938024F093812460938224CF
:1014A600709383240E94E40FE0938424F0938524B0
:1014B60060938624709387240E94F610E093882414
:1014C600F093892460938A2470938B240E9474126B
:1014D600E093F024F093F1246093F2247093F324C4
:1014E6000E949912E093F424F093F5246093F62475
:1014F6007093F7240E944812E0938C24F0938D2475
:1015060060938E2470938F240E945112E09390244E
:10151600F09391246093922470939324099854C075
:101526000E94420F0E94A2120E94B4120E94C6128A
:101536000198E0E00E94F81208EE14E230E0343040
:1015460020F40E9441123F5FFACF0CEE14E230E025
:10155600343020F40E9441123F5FFACF08ED14E2C6
:1015660030E0343020F40E9441123F5FFACF0CED98
:1015760014E230E0343020F40E9441123F5FFACF8B
:1015860004E414E230E0343020F40E9441123F5F5C
:10159600FACF08E414E230E0343020F40E9441121D
:1015A6003F5FFACF08E514E230E0343020F40E94C1
:1015B60041123F5FFACF0CE514E230E0343020F4FC
:1015C6000E9441123F5FFACF0E940F162496E991BE
:1015D600EFBFF991E991B991A99199918991799181
:1015E6006991F990199009901895E8E0E093A4069E
:1015F600E093A006E0E0E093B006E093B106E09346
:10160600B206E093B306E093B406E093B506E09322
:10161600B606E093B706E091A906E07FE093A90637
:10162600E0E0E093AA06E093AB06E0E4E093A106CF
:10163600E093A606EFEFE0932207E0913207E07C05
:10164600EA61E0933207E0912A07E460E0932A0713
:10165600E0912907E07FE360E093290708950E945F
:101666000610A0E0B0E088E090E40E94DE14E0936B
:101676003424F093352460933624709337240E94E3
:101686000610ADECBCEC8CE49FE30E94DE14E09304
:101696003824F093392460933A2470933B240E94B3
:1016A6000A13E0933C24F0933D2460933E24709308
:1016B6003F240E940A13E0934024F0934124609350
:1016C6004224709343240E9419130E94FD0FE09355
:1016D6002424F093252460932624709327240E94C3
:1016E60019130E948E14A0E0B0E080E291E40E94FB
:1016F6002C15E0932824F093292460932A247093D0
:101706002B240E941F130E94FD0FE0932C24F093BC
:101716002D2460932E2470932F240E941F130E9461
:101726008E14A0E0B0E080EA90E40E942C15E093CD
:101736003024F09331246093322470933324089537
:101746000E94C6120E9425130E94F812E0E00E9431
:10175600B41208950E948101E1E0E0930107E0934D
:1017660005070E94CA010E94EB013FDF78DF0E9455
:101776005B0FE0E0F7E0FA93EA936A920E94B30DFA
:101786000E94640FE0E2F7E0FA93EA936A920E94FD
:10179600B30DE091A200E560E093A2007894EFEF2C
:1017A600E0932207E0912807E095E078C9F00E94CF
:1017B60067130E947013089A0E94C6120E9425138E
:1017C6000E94F812E0E00E94B4120E94350F0E94B7
:1017D6008213E0E4E093A6060E9490130798019A0C
:1017E600E0912807E095E17011F40C944D0C0198F6
:1017F600E0E0F0E060E07FE30E949C13029B48C0BB
:1018060008EE14E230E0343020F40E9441123F5FCB
:10181600FACF0CEE14E230E0343020F40E9441128C
:101826003F5FFACF08ED14E230E0343020F40E9436
:1018360041123F5FFACF0CED14E230E0343020F471
:101846000E9441123F5FFACF04E414E230E03430E4
:1018560020F40E9441123F5FFACF08E414E230E020
:10186600343020F40E9441123F5FFACF08E514E2BB
:1018760030E0343020F40E9441123F5FFACF0CE58D
:1018860014E230E0343020F40E9441123F5FFACF78
:10189600029801C0029AE0912807E095E27011F4DF
:1018A6000C94A80C0198E0E0F0E060E07FEB0E9469
:1018B6009C13039B48C008EE14E230E0343020F459
:1018C6000E9441123F5FFACF0CEE14E230E0343052
:1018D60020F40E9441123F5FFACF08ED14E230E097
:1018E600343020F40E9441123F5FFACF0CED14E22F
:1018F60030E0343020F40E9441123F5FFACF04E416
:1019060014E230E0343020F40E9441123F5FFACFF7
:1019160008E414E230E0343020F40E9441123F5FC4
:10192600FACF08E514E230E0343020F40E94411288
:101936003F5FFACF0CE514E230E0343020F40E9429
:1019460041123F5FFACF039801C0039AE09128073E
:10195600E095E87011F40C94040D0E94AE13E0E0DB
:10196600F0E060E07FE30E94B913059B48C008EEF3
:1019760014E230E0343020F40E9441123F5FFACF87
:101986000CEE14E230E0343020F40E9441123F5F46
:10199600FACF08ED14E230E0343020F40E94411210
:1019A6003F5FFACF0CED14E230E0343020F40E94B1
:1019B60041123F5FFACF04E414E230E0343020F401
:1019C6000E9441123F5FFACF08E414E230E034305F
:1019D60020F40E9441123F5FFACF08E514E230E09E
:1019E600343020F40E9441123F5FFACF0CE514E236
:1019F60030E0343020F40E9441123F5FFACF059860
:101A060001C0059AE0912807E095E07111F40C9465
:101A1600600D0E94AE13E0E0F0E060E07FEB0E9414
:101A2600B913069B48C008EE14E230E0343020F4C7
:101A36000E9441123F5FFACF0CEE14E230E03430E0
:101A460020F40E9441123F5FFACF08ED14E230E025
:101A5600343020F40E9441123F5FFACF0CED14E2BD
:101A660030E0343020F40E9441123F5FFACF04E4A4
:101A760014E230E0343020F40E9441123F5FFACF86
:101A860008E414E230E0343020F40E9441123F5F53
:101A9600FACF08E514E230E0343020F40E94411217
:101AA6003F5FFACF0CE514E230E0343020F40E94B8
:101AB60041123F5FFACF069801C0069AE0912807C7
:101AC600E095E07251F00798019AE0E4E093A606EB
:101AD6000E94350F0E9482133BC0E0912807E095D3
:101AE600E074B1F1E0E4E093A606E0E0E093E824D8
:101AF600E093E924E093EA24E093EB24E093EC24DA
:101B0600E093ED24E093EE24E093EF240E94671324
:101B16000E947013E0E0F0E0E0932009F0932109C1
:101B2600E0E2FEE4E0932609F0932709EAE0F7ED08
:101B360063E27DE3E0932024F09321246093222442
:101B4600709323248CDD0E949013079AF9DD019A85
:101B560026CEFFCFE991F991699179917F77089522
:101B6600AD81BE811296EFEFEC93AB81BC811196ED
:101B7600EC93A981BA811296EEEFEC93A981BA8112
:101B86001196E1E00E94C213E1E0EC93AB81BC81C7
:101B96001696E0ECEC930000AB81BC811596E0EC68
:101BA600EC93AB81BC811596E0E1EC93AB81BC81F3
:101BB6001696E2E0EC93EB81FC81FA93EA93EA81D4
:101BC600EA9307D0E03011F4E0E001C0E1E02796A7
:101BD6000895E881F0E0E130A0E0FA0759F4A98120
:101BE600BA811596E8E0EC93A981BA811696E4E0ED
:101BF600EC931CC0E230A0E0FA0749F4A981BA814F
:101C06001696E8E00E94C213E4E0EC930FC0E330BE
:101C1600A0E0FA0749F4A981BA811596E8E00E9486
:101C2600C213E4E0EC9302C0E0E001C0E1E02396D9
:101C360008952A978AE0A0E0B0E0ECE1F2E00E9485
:101C460014160E94061610E000E030E020E050E096
:101C560040E000000000000000000000000000005E
:101C6600000000000000000000000000E889E030ED
:101C760021F0A989BA89159603C0A989BA89169649
:101C8600E2E0EC93AB89BC891296EFEF0E94C71392
:101C96000E94CC130E94C713E0E1EC930000000001
:101CA600AB89BC8918961C91AB89BC8918961C9186
:101CB6000000A989BA8915960E94CC13EC930000FE
:101CC6000000AB89BC8918960C91AB89BC89189623
:101CD6000C910000A989BA891696E0E20E94C71302
:101CE600E1E0EC9300000000AB89BC8918963C91BA
:101CF600AB89BC8918963C910000A989BA891596CA
:101D0600E0E20E94C713E1E0EC9300000000AB891B
:101D1600BC8918962C91AB89BC8918962C91000029
:101D2600A989BA891596E0E1EC93E12F0E94D313B5
:101D3600DF01CB01E8E10E94D9150E94D713E02FFD
:101D46000E94D3130E94E5150E94DC13E32F0E9424
:101D5600D313DF01CB01E8E00E94D9150E94DC1302
:101D6600E22F0E94D3130E94DC13EC85FD856E855D
:101D76007F850E940D1665960895A881B9811696ED
:101D8600E0ECEC930000A881B9811596E0ECEC93A9
:101D9600A881B9811596E0E1EC93A881B9811696E0
:101DA600E2E0EC93229608950E94E313E160D501E8
:101DB6001496EC93E0911425F09115253196E09355
:101DC6001425F0931525F501A481EBEFEA23D5013F
:101DD6001496EC93ED2DA0911425B0911525F0E005
:101DE600AE17BF0750F0D5011496EC91E460EC9362
:101DF600E0E0E0931425E09315252DC00E94E3133F
:101E0600E360D5011496EC9326C00E94E313E260CA
:101E1600D5011496EC931FC00E94E313D5011496C6
:101E2600EC9319C0AA93BA93EA93FA93EFB7EA939D
:101E3600E0911625EF5FE0931625A0911625A330B5
:101E460050F0F501A481E0E4EA27D5011496EC935D
:101E5600E0E0E0931625E991EFBFF991E991B99198
:101E6600A9911895E0E0F0E0E0932009F0932109AC
:101E7600E8E8F3E1E0932609F093270908950A922A
:101E86001A92FA926A937A938A939A93AA93BA9336
:101E9600EA93FA93EFB7EA930E9408160895E09141
:101EA6000425F09105256091062570910725089572
:101EB600E0E6F6E0FA93EA93E0E8F6E0FA93EA93CE
:101EC6000895E0EEF6E0FA93EA93E0E4F6E0FA939A
:101ED600EA9308950E945414A0E0B0E080E090E4F4
:101EE6000E94DE14ABEDBFE089E490E40E94DE14AC
:101EF6000895DF01CB01E0E0F0E060E875E40E94C0
:101F06002C150895E0934424F093452460934624C9
:101F1600709347240895E0935824F09359246093CE
:101F26005A2470935B240895E0934C24F0934D2437
:101F360060934E2470934F240895E0936024F093A9
:101F4600612460936224709363240895E09144248D
:101F5600F0914524609146247091472408950E948B
:101F6600EF150E94AD0DDF01CB010895E0916C24C1
:101F7600F0916D2460916E2470916F240895E09124
:101F86004C24F0914D2460914E2470914F24089575
:101F9600E6E6F6E666E67FE30E9471150895E091AF
:101FA6007424F091752460917624709177240895B5
:101FB600E0915824F091592460915A2470915B2441
:101FC6000895E0916024F0916124609162247091FB
:101FD60063240895E0918424F091852460918624F9
:101FE6007091872408950E94DE14A0E0B0E080E896
:101FF6009FE308950E948E14A0E0B0E080E89FE37E
:102006000E942C150895E0912024F09121246091DE
:1020160022247091232408950E94F4150E948714A7
:102026000895E091F024F091F1246091F2247091EA
:10203600F32408950E948E14A0912024B0912124A7
:1020460080912224909123240E94DE140895A09169
:102056009424B09195248091962490919724089584
:10206600A0912024B09121248091222490912324B0
:102076000E94DE1408950E94DE14A0918424B0917B
:10208600852480918624909187240E94DE140895E9
:10209600E091F424F091F5246091F6247091F724F0
:1020A6000895A0914824B091492480914A249091A2
:1020B6004B240895A0915C24B0915D2480915E2408
:1020C60090915F240895E0E0F0E060E87FE30895F2
:1020D600E093C824F093C9246093CA247093CB2458
:1020E60008950E94EF150C94AD0DEDDFE093D0241A
:1020F600F093D1246093D2247093D32408950E9440
:102106002C150E941B14A0910C25B0910D258091D1
:102116000E2590910F250E9401160895E093D8246C
:10212600F093D9246093DA247093DB240895E09326
:10213600DC24F093DD246093DE247093DF24099A77
:102146000895ECDFE091E424F091E5246091E62423
:102156007091E7240895FADE0E948714DF01CB010F
:102166000E94DE140895E0914824F091492460917C
:102176004A2470914B240895E0915024F091512403
:1021860060915224709153240895E091D824F091DF
:10219600D9246091DA247091DB24A0EBB2E786EBB8
:1021A60090EC0E94DE14A0915424B09155248091A5
:1021B6005624909157240E948E140895A091DC24F1
:1021C600B091DD248091DE249091DF24F1DE0E941F
:1021D60087140895E0915C24F0915D2460915E245B
:1021E60070915F240895E0916424F09165246091D4
:1021F6006624709167240895E091DC24F091DD2433
:102206006091DE247091DF24A6EFB8E280E390ECC3
:102216000E94DE14A0916824B091692480916A24FA
:1022260090916B240E948E1408950E948E140E9431
:10223600EF150C949115A0919C24B0919D2480914A
:102246009E2490919F248FDF0E9487140895A09169
:10225600A024B091A1248091A2249091A3248FDE82
:102266000E9487140895A091A424B091A52480917A
:10227600A6249091A72480DF0E9487140895A09138
:10228600A824B091A9248091AA249091AB24E0912E
:102296005424F091552460915624709157240E943D
:1022A60087140895A091AC24B091AD248091AE24FA
:1022B6009091AF247DDE0E9487140895A091B024EA
:1022C600B091B1248091B2249091B32483DF0E940F
:1022D60087140895A091B424B091B5248091B624B2
:1022E6009091B7246EDE0E9487140895A091B824B9
:1022F600B091B9248091BA249091BB2474DF0E94D6
:1023060087140895A091BC24B091BD248091BE2469
:102316009091BF24E0916824F091692460916A2429
:1023260070916B240E948714089510DEA0EBB2E72B
:1023360086EB90EC0E94DE14089515DFADECBCEC44
:102346008CE49EE30E94DE14089519DEA0E0B0E05E
:1023560080E290EC0E94DE1408950EDFACE2B5E652
:1023660089E19EEB0E94DE1408950E948E14A091CE
:102376005424B091552480915624909157240E945C
:102386008E14E093FC24F093FD246093FE24709356
:10239600FF2408950DDEA6EFB8E280E390EC0E94DC
:1023A600DE14089517DFA9EFBFE089EE9DE30E94D2
:1023B600DE14089506DEA0E0B0E080E290E40E941C
:1023C600DE14089510DFA9EEB7EB8FE29EE30E94BC
:1023D600DE1408950E948E14A0916824B091692499
:1023E60080916A2490916B240E948E14E0930025BC
:1023F600F09301256093022570930325A091FC2498
:10240600B091FD248091FE249091FF245CDE0E9411
:1024160071150895A091FC24B091FD248091FE24AD
:102426009091FF24E0E0F0E060E87FEB0E947115F8
:102436000895E0E0F0E060E87FEB0895E091FC2489
:10244600F091FD246091FE247091FF240895A091DF
:102456000025B091012580910225909103250895CC
:10246600F6DFE7DF0E9471150895E0910025F091EF
:10247600012560910225709103250895D8010F5F0B
:102486001F4FEC91EA930C94E201E0915424F091F1
:10249600552460915624709157240895E09168243C
:1024A600F091692460916A2470916B240895A0913B
:1024B6004424B09145248091462490914724E0918C
:1024C600D824F091D9246091DA247091DB240E94FB
:1024D60087140895AAE0B7ED83EA9BE30E94DE1411
:1024E6000895E091E824F091E9246091EA2470913E
:1024F600EB2408950E948714ADECBCEC8CE49EE3BB
:102506000E94DE140895A0915824B0915924809118
:102516005A2490915B24E091DC24F091DD246091B3
:10252600DE247091DF240E9487140895E091EC2444
:10253600F091ED246091EE247091EF240895E0E08F
:10254600E093E824E093E924E093EA24E093EB2483
:10255600E093EC24E093ED24E093EE24E093EF2463
:102566000895E093FC24E093FD24E093FE24E09399
:10257600FF24E0E0E0930025E0930125E0930225A7
:10258600E09303250895E0E0E0935424E093552476
:10259600E0935624E0935724E0938C24E0938D2413
:1025A600E0938E24E0938F24E093A824E093A9245B
:1025B600E093AA24E093AB24E0936824E093692493
:1025C600E0936A24E0936B24E0939024E0939124B3
:1025D600E0939224E0939324E093BC24E093BD24FB
:1025E600E093BE24E093BF240895E093F024E093A3
:1025F600F124E093F224E093F324E0E0E093F42462
:10260600E093F524E093F624E093F7240895A0914F
:102616002024B09121248091222490912324EDEC52
:10262600FCEC6CE47DE30E942C150895ECDCA0E044
:10263600B0E080E291E4D7CCE6DCA0E0B0E080EA4E
:1026460090E4D1CCE0E0E0936C24E0936D24E09339
:102656006E24E0936F24E0937024E0937124E0935A
:102666007224E0937324E0937424E0937524E0933A
:102676007624E0937724E0937824E0937924E0931A
:102686007A24E0937B24E0937C24E0937D24E093FA
:102696007E24E0937F24E0938024E0938124E093DA
:1026A6008224E0938324E0938424E0938524E093BA
:1026B6008624E0938724E0938824E0938924E0939A
:1026C6008A24E0938B243BCFE091E024F091E1242F
:1026D6006091E2247091E32434CDE093DC24F093FE
:1026E600DD246093DE247093DF24E0E0E0930C2584
:1026F600E0930D25E0930E25E0930F250895EAE07B
:10270600F7ED63E27CE3E0932024F09321246093C9
:102716002224709323240C94320BE0E8F6E0FA931B
:10272600EA930E94C00EE0E4F6E0FA93EA930C9472
:10273600C00EE093E824F093E9246093EA247093B2
:10274600EB24E0E0E093EC24E093ED24E093EE2428
:10275600E093EF2408950198E0E0E093E824E09305
:10276600E924E093EA24E093EB240895E093EC2433
:10277600F093ED246093EE247093EF240895EC9388
:10278600A981BA8115960895EC93A989BA891696F6
:102796000895E0E2EC93A989BA891596E1E00895D7
:1027A600F0E00E94EA150895EC87FD876E877F8723
:1027B6000895AC85BD858E859F850E94CC15F4CF86
:1027C600AA93BA93EA93FA93EFB7EA93F501A48131
:1027D600ECEFEA230895552342F4503811F4E0FF54
:1027E60004C03196691F791F6BF050E8572711F422
:1027F6005F93CFC05F3F31F0660F000C579567952A
:10280600752F08955F9300200AF0CFC0C8C050E826
:10281600192E1522880F991F9527550F879550E871
:10282600072E0522660F771F7527550F67950895A2
:10283600689401C0E8945F93F2DF703818F07F3F28
:1028460008F4A7C056E1571BAAF4519558300EF468
:10285600593030F0EFEFFFEF6FEF7FE777F91AC0EF
:1028660077275523B9F0EE0FFF1F661F771F5A957E
:10287600D1F710C07727583028F0EF2FF62F672FA3
:102886005850F9CF552331F076956795F795E7952A
:102896005A95D1F700200AF481D15F910895689482
:1028A60001C0E894309760407040B1F0002426F0F3
:1028B600772312F4009472D1172E7EE1112032F0A4
:1028C6007A95EE0FFF1F661F111CF9CFEF2FF62F1B
:1028D600612D5F938ADF5F9108954F93AF01FD01EC
:1028E600DA01AB01BC01CA01402D012C142E4F9117
:1028F6000895EA0FFB1F681F0895E095F09560950F
:10290600EF5FFF4F6F4F08955F9381DF903871F14E
:1029160050E8152604C05F937ADF903839F1703895
:1029260021F1572F591B2BF112F4D7DFFACF58316B
:1029360018F0AA27BB278827583028F0AB2FB82FC6
:1029460088275850F9CF552329F08695B795A7952E
:102956005A95D9F7502D512572F0CBDF38F467958B
:10296600F795E795739513F420C0B7DF3EDF5F91C7
:102976000895D8F7FBCFEA1BFB0B680B51F010F458
:102986000094BBDF662392F3EE0FFF1F661F7A9556
:10299600CBF7EE27FF27662777275F910895EFEF9E
:1029A600FFEF6FE77FEF5F910895EFEFFFEF6FE7C0
:1029B6007FE75F9108955F932ADF703851F390386F
:1029C60041F301240894791F23F41CF300203AF301
:1029D600ECCF0F921F932F933F934F9311272227EC
:1029E6009927689FA0018F9F302D410D591F6B9F1E
:1029F600300D411D591F8E9F27D0BF9F25D06A9F3E
:102A060023D0BE9F1DD0AF9F1BD0AE9F110D291F97
:102A1600391F491F591FE32FF42F652F522F4F914E
:102A26003F912F911F910F9066232AF0550FEE1FAD
:102A3600FF1F661F02C073954BF2CDDE5F910895AE
:102A4600100D211D391F02C0200D311D491F591FB0
:102A560008955F93DCDE703821F411200AF49FCFCD
:102A6600A4CF903809F495CF01240894970B1BF452
:102A7600D4F30020F3CF792F1F932F933F934F93D7
:102A860011241127222733274427552790E2AE1712
:102A9600BF078607410730F0AE1BBF0B860B410B05
:102AA600089401C08894551F221F331F111CAA1FAA
:102AB600BB1F881F441F9A9551F7F901612D4F914D
:102AC6003F912F911F91662332F0550FEE1FFF1F86
:102AD600661F7A9543F27FDE5F91089599239AF0F7
:102AE600772342F0971748F029F4AE17BF078607F9
:102AF60020F031F098948894089598940894089555
:102B06001894889408957723C2F7971798F3A9F72E
:102B1600EA17FB07680788F399F3ECCF24975F93CE
:102B26009F81992311F4289634CF12F428963DCF2D
:102B36004F9342E48E81BD81AC8188839983AA83B9
:102B4600BB83FD01BC01AC81BD818E819F8181DF8C
:102B560088819981AA81BB81DEDE61DE7A9545DEB8
:102B660088819981AA81BB81AE27A87F21F4BF17EE
:102B76008607970729F04A9519F0DF01CB01DDCFCB
:102B86004F915F9128960895EA1BFB0B680B790B12
:102B96000895EA2BFB2B682B792B0895F095609509
:102BA6007095E195FF4F6F4F7F4F0895EE230E2EE0
:102BB600FD01BC0131F0EE0FFF1F661F771F0A945F
:102BC600D1F708956E2F7F2FE0E0F0E008956F2F84
:102BD600660F660B762F08957A936A93FA93EA93B3
:102BE6000895182E862F612D192E972F712D1B2EC5
:102BF600BF2FF12D1A2EAE2FE12D0895EA17FB07F0
:102C06006807790708955A934A933A932A931A9331
:102C16000A9308955D814C813B812A81198108813F
:102C26000895AC0FBD1F05900D928A95E1F70895A2
:00000001FF
